{
  "address": "0xf138f6177a56D842A4320C8DD34A22C7AE60f029",
  "abi": [
    {
      "inputs": [
        {
          "internalType": "address",
          "name": "_counter",
          "type": "address"
        }
      ],
      "stateMutability": "nonpayable",
      "type": "constructor"
    },
    {
      "inputs": [],
      "name": "COUNTER",
      "outputs": [
        {
          "internalType": "address",
          "name": "",
          "type": "address"
        }
      ],
      "stateMutability": "view",
      "type": "function"
    },
    {
      "inputs": [],
      "name": "checker",
      "outputs": [
        {
          "internalType": "bool",
          "name": "canExec",
          "type": "bool"
        },
        {
          "internalType": "bytes",
          "name": "execPayload",
          "type": "bytes"
        }
      ],
      "stateMutability": "view",
      "type": "function"
    }
  ],
  "transactionHash": "0x3ccff8d70b2b2ecf26b5f148d5ac7dabcf7a4726ab1faccbbab859a39e8e93cc",
  "args": [
    "0xA31e7Cc7e37d1aD5dB8F0c976D46979bbE46b7de"
  ],
  "numDeployments": 3,
  "solcInputHash": "5b042dad24e0ed047674d8aafe1c3e52",
  "bytecode": "0x60a060405234801561001057600080fd5b5060405161066938038061066983398181016040528101906100329190610084565b8073ffffffffffffffffffffffffffffffffffffffff1660808173ffffffffffffffffffffffffffffffffffffffff1660601b81525050506100ff565b60008151905061007e816100e8565b92915050565b60006020828403121561009a576100996100e3565b5b60006100a88482850161006f565b91505092915050565b60006100bc826100c3565b9050919050565b600073ffffffffffffffffffffffffffffffffffffffff82169050919050565b600080fd5b6100f1816100b1565b81146100fc57600080fd5b50565b60805160601c61054061012960003960008181607a0152818160a4015261015901526105406000f3fe608060405234801561001057600080fd5b50600436106100365760003560e01c806399b705791461003b578063cf5303cf14610059575b600080fd5b610043610078565b6040516100509190610327565b60405180910390f35b61006161009c565b60405161006f929190610342565b60405180910390f35b7f000000000000000000000000000000000000000000000000000000000000000081565b6000606060007f000000000000000000000000000000000000000000000000000000000000000073ffffffffffffffffffffffffffffffffffffffff1663e53c012e6040518163ffffffff1660e01b815260040160206040518083038186803b15801561010857600080fd5b505afa15801561011c573d6000803e3d6000fd5b505050506040513d601f19601f820116820180604052508101906101409190610294565b90506005814361015091906103ff565b1192506000600a7f000000000000000000000000000000000000000000000000000000000000000073ffffffffffffffffffffffffffffffffffffffff166356d42bb36040518163ffffffff1660e01b815260040160206040518083038186803b1580156101bd57600080fd5b505afa1580156101d1573d6000803e3d6000fd5b505050506040513d601f19601f820116820180604052508101906101f59190610294565b6101ff91906103a9565b90506346d4adf260e01b8160405160240161021a9190610372565b604051602081830303815290604052907bffffffffffffffffffffffffffffffffffffffffffffffffffffffff19166020820180517bffffffffffffffffffffffffffffffffffffffffffffffffffffffff8381831617835250505050925050509091565b60008151905061028e816104f3565b92915050565b6000602082840312156102aa576102a96104dd565b5b60006102b88482850161027f565b91505092915050565b6102ca81610433565b82525050565b6102d981610445565b82525050565b60006102ea8261038d565b6102f48185610398565b935061030481856020860161047b565b61030d816104e2565b840191505092915050565b61032181610471565b82525050565b600060208201905061033c60008301846102c1565b92915050565b600060408201905061035760008301856102d0565b818103602083015261036981846102df565b90509392505050565b60006020820190506103876000830184610318565b92915050565b600081519050919050565b600082825260208201905092915050565b60006103b482610471565b91506103bf83610471565b9250827fffffffffffffffffffffffffffffffffffffffffffffffffffffffffffffffff038211156103f4576103f36104ae565b5b828201905092915050565b600061040a82610471565b915061041583610471565b925082821015610428576104276104ae565b5b828203905092915050565b600061043e82610451565b9050919050565b60008115159050919050565b600073ffffffffffffffffffffffffffffffffffffffff82169050919050565b6000819050919050565b60005b8381101561049957808201518184015260208101905061047e565b838111156104a8576000848401525b50505050565b7f4e487b7100000000000000000000000000000000000000000000000000000000600052601160045260246000fd5b600080fd5b6000601f19601f8301169050919050565b6104fc81610471565b811461050757600080fd5b5056fea26469706673582212209ecde1ec968686df62594adc72998f0c396941575f54ce57e45ab4b18f6f764c64736f6c63430008070033",
  "devdoc": {
    "kind": "dev",
    "methods": {},
    "version": 1
  },
  "userdoc": {
    "kind": "user",
    "methods": {},
    "version": 1
  },
  "storageLayout": {
    "storage": [],
    "types": null
  }
}