{
  "address": "0x4859940E9f4877C6314A857505414Aa9b04121BA",
  "abi": [
    {
      "inputs": [],
      "name": "getLastExecuted",
      "outputs": [
        {
          "internalType": "uint256",
          "name": "",
          "type": "uint256"
        }
      ],
      "stateMutability": "view",
      "type": "function"
    },
    {
      "inputs": [],
      "name": "getTotalCount",
      "outputs": [
        {
          "internalType": "uint256",
          "name": "",
          "type": "uint256"
        }
      ],
      "stateMutability": "view",
      "type": "function"
    },
    {
      "inputs": [
        {
          "internalType": "uint256",
          "name": "_incrementAmount",
          "type": "uint256"
        }
      ],
      "name": "increaseCount",
      "outputs": [],
      "stateMutability": "nonpayable",
      "type": "function"
    }
  ],
  "transactionHash": "0xd455dc69e26073077adacc4ded91b444dd1273d51182e0dba6fbb733ca85dca0",
  "args": [],
  "numDeployments": 1,
  "solcInputHash": "d81b5c7b2294d7276d0ccf983d3cdcea",
  "bytecode": "0x608060405234801561001057600080fd5b50610343806100206000396000f3fe608060405234801561001057600080fd5b50600436106100415760003560e01c806346d4adf21461004657806356d42bb314610062578063e53c012e14610080575b600080fd5b610060600480360381019061005b9190610134565b61009e565b005b61006a61010c565b60405161007791906101b3565b60405180910390f35b610088610115565b60405161009591906101b3565b60405180910390f35b6005600154436100ae9190610235565b116100ee576040517f08c379a00000000000000000000000000000000000000000000000000000000081526004016100e590610193565b60405180910390fd5b806000546100fc91906101df565b6000819055504360018190555050565b60008054905090565b6000600154905090565b60008135905061012e816102f6565b92915050565b60006020828403121561014a576101496102a2565b5b60006101588482850161011f565b91505092915050565b600061016e6028836101ce565b9150610179826102a7565b604082019050919050565b61018d81610269565b82525050565b600060208201905081810360008301526101ac81610161565b9050919050565b60006020820190506101c86000830184610184565b92915050565b600082825260208201905092915050565b60006101ea82610269565b91506101f583610269565b9250827fffffffffffffffffffffffffffffffffffffffffffffffffffffffffffffffff0382111561022a57610229610273565b5b828201905092915050565b600061024082610269565b915061024b83610269565b92508282101561025e5761025d610273565b5b828203905092915050565b6000819050919050565b7f4e487b7100000000000000000000000000000000000000000000000000000000600052601160045260246000fd5b600080fd5b7f436f756e7465723a20696e637265617365436f756e743a2054696d65206e6f7460008201527f20656c6170736564000000000000000000000000000000000000000000000000602082015250565b6102ff81610269565b811461030a57600080fd5b5056fea2646970667358221220632d94452959a9696e054ea59700169432f11dacbe82c61bd4640bfec483ee4764736f6c63430008070033",
  "devdoc": {
    "kind": "dev",
    "methods": {},
    "version": 1
  },
  "userdoc": {
    "kind": "user",
    "methods": {},
    "version": 1
  },
  "storageLayout": {
    "storage": [
      {
        "astId": 693,
        "contract": "src/DynamicCounter.sol:DynamicCounter",
        "label": "totalCount",
        "offset": 0,
        "slot": "0",
        "type": "t_uint256"
      },
      {
        "astId": 695,
        "contract": "src/DynamicCounter.sol:DynamicCounter",
        "label": "lastExecuted",
        "offset": 0,
        "slot": "1",
        "type": "t_uint256"
      }
    ],
    "types": {
      "t_uint256": {
        "encoding": "inplace",
        "label": "uint256",
        "numberOfBytes": "32"
      }
    }
  }
}