{
  "address": "0xaf706E41557E9CBaAf4D4fe8A1C0245d73D3bb9a",
  "abi": [
    {
      "inputs": [],
      "name": "getTotalCount",
      "outputs": [
        {
          "internalType": "uint256",
          "name": "",
          "type": "uint256"
        }
      ],
      "stateMutability": "view",
      "type": "function"
    },
    {
      "inputs": [
        {
          "internalType": "uint256",
          "name": "_incrementAmount",
          "type": "uint256"
        }
      ],
      "name": "increaseCount",
      "outputs": [],
      "stateMutability": "nonpayable",
      "type": "function"
    }
  ],
  "transactionHash": "0x7fbbc323998fc93c947cbb3d6ff28a11e212e510883590ee4995ccf48761faf2",
  "args": [],
  "numDeployments": 1,
  "solcInputHash": "d81b5c7b2294d7276d0ccf983d3cdcea",
  "bytecode": "0x608060405234801561001057600080fd5b506101e2806100206000396000f3fe608060405234801561001057600080fd5b50600436106100365760003560e01c806346d4adf21461003b57806356d42bb314610057575b600080fd5b610055600480360381019061005091906100aa565b610075565b005b61005f61008c565b60405161006c91906100e6565b60405180910390f35b806000546100839190610101565b60008190555050565b60008054905090565b6000813590506100a481610195565b92915050565b6000602082840312156100c0576100bf610190565b5b60006100ce84828501610095565b91505092915050565b6100e081610157565b82525050565b60006020820190506100fb60008301846100d7565b92915050565b600061010c82610157565b915061011783610157565b9250827fffffffffffffffffffffffffffffffffffffffffffffffffffffffffffffffff0382111561014c5761014b610161565b5b828201905092915050565b6000819050919050565b7f4e487b7100000000000000000000000000000000000000000000000000000000600052601160045260246000fd5b600080fd5b61019e81610157565b81146101a957600080fd5b5056fea26469706673582212204d8dcedf1b2d6d3f765fe6ff87c5afc36746189ffdec7dad3d11d7d675a03e6064736f6c63430008070033",
  "devdoc": {
    "kind": "dev",
    "methods": {},
    "version": 1
  },
  "userdoc": {
    "kind": "user",
    "methods": {},
    "version": 1
  },
  "storageLayout": {
    "storage": [
      {
        "astId": 781,
        "contract": "src/StaticCounter.sol:StaticCounter",
        "label": "totalCount",
        "offset": 0,
        "slot": "0",
        "type": "t_uint256"
      }
    ],
    "types": {
      "t_uint256": {
        "encoding": "inplace",
        "label": "uint256",
        "numberOfBytes": "32"
      }
    }
  }
}